:020000040800F2
:100000000000022015130008AD120008AF1200080E
:10001000B1120008B3120008B51200080000000079
:10002000000000000000000000000000B7120008FF
:10003000B912000800000000BB120008BD12000841
:1000400065130008651300086513000865130008B0
:1000500065130008651300086513000865130008A0
:100060006513000865130008651300086513000890
:100070006513000865130008651300086513000880
:1000800065130008651300086513000800000000F0
:1000900000000000000000000000000065130008E0
:1000A0006513000865130008651300086513000850
:1000B0006513000865130008651300086513000840
:1000C0006513000865130008651300086513000830
:1000D00065130008651300086513000800000000A0
:1000E0006513000865130008651300080000000090
:1000F0000000000000000000000000006513000880
:10010000000000006513000865130008651300086F
:1001100000000000000000000000000000000000DF
:1001200065130008651300086513000865130008CF
:10013000651300080000000000000000000000003F
:10014000000000000000000000000000651300082F
:10015000651300086513000865130008651300089F
:10016000651300086513000800000000000000008F
:10017000000000000000000000000000000000007F
:1001800000000000651300080000000000000000EF
:08019000651300086513000867
:1001980010B5054C237833B9044B13B10448AFF3B9
:1001A80000800123237010BD100000200000000013
:1001B800B013000808B5034B1BB103490348AFF35C
:1001C800008008BD0000000014000020B0130008E3
:1001D80053B94AB9002908BF00281CBF4FF0FF31A6
:1001E8004FF0FF3000F072B9ADF1080C6DE904CEA4
:1001F80000F006F8DDF804E0DDE9022304B07047FA
:100208002DE9F047089E04468846002B4BD18A42C8
:10021800154667D9B2FA82F24AB1C2F1200701FA4B
:1002280002F320FA07F7954047EA030894404FEA9B
:10023800154E230CB8FBFEF71FFA85FC0EFB17883A
:1002480043EA084307FB0CF1994209D9EB1807F177
:10025800FF3080F01B81994240F21881023F2B4405
:100268005B1AA4B2B3FBFEF00EFB103344EA03445E
:1002780000FB0CFCA44509D92C1900F1FF3380F0D0
:100288000781A44540F2048102382C4440EA074023
:10029800A4EB0C0400271EB1D4400023C6E9004398
:1002A8003946BDE8F0878B4209D9002E00F0EB8073
:1002B8000027C6E9000138463946BDE8F087B3FA99
:1002C80083F7002F47D18B4202D3824200F2FA8093
:1002D800841A61EB030301209846002EE0D0C6E99A
:1002E8000048DDE702B9FFDEB2FA82F2002A40F0E8
:1002F8008F80491B4FEA154E1FFA85F80127B1FB7D
:10030800FEFC230C0EFB1C1143EA014308FB0CF115
:10031800994207D9EB180CF1FF3002D2994200F24A
:10032800CD808446591AA3B2B1FBFEF00EFB10141F
:1003380043EA044408FB00F8A04507D92C1900F14A
:10034800FF3302D2A04500F2B6801846A4EB080499
:1003580040EA0C409FE7C7F1200CBB4022FA0CFE94
:100368004EEA030E01FA07F420FA0CF521FA0CF311
:100378004FEA1E482543B3FBF8F92C0C08FB193348
:100388001FFA8EFA44EA034309FB0AF49C4202FA74
:1003980007F200FA07F10BD91EEB030309F1FF304E
:1003A80080F087809C4240F28480A9F1020973445E
:1003B8001B1BADB2B3FBF8F008FB103345EA03444E
:1003C80000FB0AFAA24508D91EEB040400F1FF332A
:1003D8006BD2A24569D90238744440EA0940A0FBAF
:1003E8000289A4EB0A044C45C2464B4654D351D06B
:1003F800002E69D0B1EB0A0564EB030404FA0CFC87
:10040800FD40FC404CEA0505C6E90054002747E7D3
:10041800C2F1200320FA03F7954001FA02F021FA0D
:1004280003F34FEA154E3843010CB3FBFEF71FFAEE
:1004380085F80EFB173341EA034107FB08F38B42AB
:1004480004FA02F407D9691807F1FF3C2FD28B424E
:100458002DD9023F2944CB1A81B2B3FBFEF00EFB23
:10046800103341EA034100FB08F38B4207D96918AE
:1004780000F1FF3C17D28B4215D902382944C91A1A
:1004880040EA07473BE73746304609E70746E7E6CD
:100498001846FBE64145ABD2B8EB020A69EB0E02FF
:1004A80001381346A4E76046E9E7184695E767462A
:1004B800D1E781467CE702382C4447E7ACF1020CCF
:1004C8002B442FE7384608E73746E9E6704700BF70
:1004D80010B504460E4B18784FF47A73B3FBF0F35B
:1004E8000C4A1068B0FBF3F000F09CF868B90F2CC8
:1004F80001D901200AE0002221464FF0FF3000F028
:100508005DF8034B5C60002000E0012010BD00BFD7
:10051800000000200C00002008B50B4B1A6842F4BC
:1005280000721A601A6842F480621A601A6842F40B
:1005380080721A60032000F02FF80020FFF7C8FF30
:1005480000F066FE002008BD003C0240034A116826
:10055800034B1B780B441360704700BF2C0000202E
:1005680000000020014B1868704700BF2C000020D5
:1005780038B50446FFF7F6FF0546B4F1FF3F02D051
:10058800044B1B781C44FFF7EDFF401BA042FAD335
:1005980038BD00BF00000020074AD36823F4E06399
:1005A8001B041B0C000200F4E060184340F0BF601D
:1005B80040F40030D060704700ED00E030B4174BD5
:1005C800DB68C3F30223C3F10704042C28BF042407
:1005D8001D1D062D18D9033B4FF0FF3505FA04F40D
:1005E80021EA0401994005FA03F322EA03031943B7
:1005F80000280BDB0901C9B200F1604000F5614039
:1006080080F8001330BC70470023E5E700F00F00C6
:100618000901C9B2024B1954F4E700BF00ED00E02C
:1006280014ED00E00138B0F1807F0AD2064B586023
:10063800064AF02182F823100020986007221A60E9
:1006480070470120704700BF10E000E000ED00E0B7
:10065800042805D0054A136823F004031360704783
:10066800024A136843F004031360704710E000E087
:10067800704708B5FFF7FCFF08BD000000230F2BEB
:1006880000F2C580F0B482B039E0042200E0002214
:10069800B2403A4302345E4E46F824205D4A14685C
:1006A800EA4302EA04064F6817F4803F01D045EA9E
:1006B8000406584C2660646802EA04064F6817F47A
:1006C800003F01D045EA0406524C6660A46802EA7D
:1006D80004064F6817F4801F01D045EA04064D4C04
:1006E800A660E46822404E6816F4001F01D045EA6F
:1006F8000402484CE26001330F2B00F2858001228E
:100708009A400C6804EA0205AA42F4D14C68022C0B
:1007180001D0122C10D1DE08083650F826C003F09C
:100728000704A7000F24BC402CEA040C0C69BC4049
:1007380044EA0C0440F8264004685F000326BE40E3
:10074800F64306EA040C4C6804F00304BC4044EA8F
:100758000C0404604C6804F1FF3CBCF1010F03D9A0
:10076800112C01D0122C10D1846806EA040CCC6834
:10077800BC4044EA0C048460446824EA02024C68E1
:10078800C4F300149C4014434460C26816408A684D
:10079800BA403243C2604A6812F0805FABD0002290
:1007A80001921D4A546C44F480445464526C02F41F
:1007B80080420192019A9C08A61C154A52F826709C
:1007C80003F0030296000F22B24027EA0207134AF9
:1007D80090423FF45CAF02F5806290420ED002F581
:1007E800806290420CD002F5806290420AD002F5F5
:1007F800806290423FF449AF072249E7012247E768
:10080800022245E7032243E702B0F0BC7047704775
:1008180000380140003C014000380240000002401E
:100828000369194201D1002070470120704712B9AD
:10083800090481617047816170470000002800F059
:10084800BB8170B582B00446036813F0010F3BD03A
:10085800A74B9B6803F00C03042B2CD0A44B9B687C
:1008680003F00C03082B21D06368B3F5803F4FD009
:10087800B3F5A02F52D09E4B1A6822F480321A602A
:100888001A6822F480221A606368002B50D0FFF7A0
:1008980069FE0546964B1B6813F4003F14D1FFF719
:1008A80061FE401B6428F5D903208AE1904B5B6800
:1008B80013F4800FD8D08E4B1B6813F4003F03D07D
:1008C8006368002B00F07A81236813F0020F55D07B
:1008D800874B9B6813F00C0F3ED0854B9B6803F049
:1008E8000C03082B33D0E368002B68D0814B01221E
:1008F8001A60FFF737FE05467D4B1B6813F0020FA1
:1009080054D1FFF72FFE401B0228F5D9032058E1E8
:10091800774A136843F480331360B5E7744B1A6859
:1009280042F480221A601A6842F480321A60ABE7F7
:10093800FFF718FE05466E4B1B6813F4003FC3D043
:10094800FFF710FE401B6428F5D9032039E1684BF6
:100958005B6813F4800FC6D1654B1B6813F0020F58
:1009680004D0E368012B01D001202AE1604A136812
:1009780023F0F803216943EAC1031360236813F0E5
:10098800080F40D0636963B35B4B01221A60FFF71D
:10099800E9FD0546564B5B6F13F0020F33D1FFF7A5
:1009A800E1FD401B0228F5D903200AE1504A1368EB
:1009B80023F0F803216943EAC1031360DEE74D4BD6
:1009C80000221A60FFF7CEFD0546494B1B6813F05D
:1009D800020FD3D0FFF7C6FD401B0228F5D903202C
:1009E800EFE0454B00221A60FFF7BCFD0546404B7F
:1009F8005B6F13F0020F06D0FFF7B4FD401B02280F
:100A0800F5D90320DDE0236813F0040F79D0384BC3
:100A18001B6C13F0805F33D100230193344B1A6CA5
:100A280042F080521A641B6C03F080530193019BBF
:100A38000125324B1B6813F4807F23D0A368012B58
:100A480034D0052B38D02A4B1A6F22F001021A67CE
:100A58001A6F22F004021A67A368002B36D0FFF73A
:100A680081FD0646224B1B6F13F0020F48D1FFF79A
:100A780079FD801B41F288339842F3D90320A0E026
:100A88000025D6E71D4A136843F480731360FFF707
:100A980069FD0646194B1B6813F4807FCED1FFF71A
:100AA80061FD801B0228F5D903208AE0104A136FE4
:100AB80043F001031367CFE70D4B1A6F42F00402AE
:100AC8001A671A6F42F001021A67C5E7FFF74AFD75
:100AD8000646074B1B6F13F0020F11D0FFF742FDBC
:100AE800801B41F288339842F3D9032069E000BFA4
:100AF8000038024000004742800E47420070004024
:100B0800E5B9A369002B5BD0304A926802F00C0269
:100B1800082A58D0022B17D02D4B00221A60FFF755
:100B280021FD0446294B1B6813F0007F42D0FFF7D4
:100B380019FD001B0228F5D9032042E0234A136C53
:100B480023F080531364DCE7214B00221A60FFF77F
:100B580009FD05461D4B1B6813F0007F06D0FFF703
:100B680001FD401B0228F5D903202AE0E369226A27
:100B78001343626A43EA8213A26A5208013A43EABB
:100B88000243E26A43EA0263104A5360104B0122AF
:100B98001A60FFF7E7FC04460C4B1B6813F0007F54
:100BA80006D1FFF7DFFC001B0228F5D9032008E077
:100BB800002006E0002004E001207047012000E04A
:100BC800002002B070BD0120FBE700BF00380240E2
:100BD80060004742324B9B6803F00C03042B5CD047
:100BE800082B01D02F4870472DE9F04B2C4B5A6841
:100BF80002F03F025B6813F4800F2BD0284B5B6830
:100C0800C3F388131E4600275C010025E41A65EB30
:100C18000705A90141EA9461A001001B61EB0501E8
:100C2800CB0043EA5073C400A01943EB07014B0201
:100C380043EAD0534402204619460023FFF7C8FA76
:100C4800174B5B68C3F3014301335B00B0FBF3F060
:100C5800BDE8F08B124B5B68C3F388131E46002770
:100C68005C010025E41A65EB0705A90141EA9461D6
:100C7800A001001B61EB0501CB0043EA5073C400DF
:100C8800A01943EB07018B0243EA905384022046E4
:100C980019460023FFF79CFAD2E70348704700BFC4
:100CA800003802400024F40000127A00002800F006
:100CB8009D8070B504464F4B1B6803F00F038B42B1
:100CC80009D2CBB24B4A1370136803F00F038B425F
:100CD80001D0012070BD236813F0020F17D013F064
:100CE800040F04D0444A936843F4E05393602368A4
:100CF80013F0080F04D0404A936843F460439360AC
:100D08003D4A936823F0F003A068034393600D46BF
:100D1800236813F0010F32D06368012B21D09A1E8B
:100D2800012A25D9344A126812F0020F60D03249DC
:100D38008A6822F0030213438B60FFF713FC064610
:100D48002D4B9B6803F00C036268B3EB820F16D03F
:100D5800FFF708FC801B41F288339842F0D9032042
:100D6800B8E7254A126812F4003FE0D10120B1E744
:100D7800214A126812F0007FD9D10120AAE71D4B41
:100D88001B6803F00F03AB4209D9EAB2194B1A707A
:100D98001B6803F00F03AB4201D001209AE72368D8
:100DA80013F0040F06D0144A936823F4E053E16863
:100DB8000B439360236813F0080F07D00E4A93681B
:100DC80023F46043216943EAC1039360FFF702FFFC
:100DD800094B9B68C3F30313084AD35CD840084BFC
:100DE80018600020FFF774FB002073E701207047AC
:100DF80001206FE7003C024000380240C813000899
:100E08000C000020014B1868704700BF0C00002040
:100E1800F0B58BB000240194294B1A6B42F0040200
:100E28001A631A6B02F004020192019A02941A6B77
:100E380042F080021A631A6B02F080020292029A50
:100E480003941A6B42F010021A631A6B02F0100234
:100E58000392039A04941A6B42F008021A631B6BFC
:100E680003F008030493049B164F22460F213846CB
:100E7800FFF7DDFC144D22464DF203012846FFF72B
:100E8800D6FC0F230593012606960794089405A916
:100E98003846FFF7F3FB4FF47F4305930694079416
:100EA80005A90A48FFF7EAFB4DF2030305930696E6
:100EB8000794089405A92846FFF7E0FB0BB0F0BD9E
:100EC8000038024000080240000C024000100240B6
:100ED80010B598B901224FF480410C48FFF7A7FCE0
:100EE8000B4C2068FFF744FB00224FF48051074861
:100EF800FFF79DFC2068FFF73BFB10BD01224FF474
:100F080080510248FFF793FCEAE700BF000C02405B
:100F18000800002038B51546012805D01048FFF70D
:100F28007FFC80B1002038BD04460D48FFF778FCEF
:100F3800012801D00020F6E729460948FFF770FC90
:100F480060B92046EFE7294600F1804000F50430FB
:100F5800FFF766FC0128E6D00020E4E70020E2E77E
:100F680000100240F8B50D4616461C464FF40072B4
:100F78004FF48071FFF7CEFF074600B101274FF409
:100F880080624FF400612846FFF7C4FF054600B1B0
:100F98003D464FF480424FF400413046FFF7BAFF18
:100FA800064600B12E464FF400524FF480512046B9
:100FB800FFF7B0FF034618B91846FFF789FFF8BDD9
:100FC8003346F9E708B50B46114620B90022184602
:100FD800FFF72DFC08BD01221846FFF728FCF9E7AA
:100FE800FEE7000000B595B0002301932A4A116C72
:100FF80041F080511164126C02F080520192019A02
:101008000293264A116841F440411160126802F4C3
:1010180040420292029A0222089201210B91102169
:101028000C910E920F9308231093C0221192042260
:101038001292139308A8FFF701FC10BB0F23039328
:1010480002230493002305934FF4A05206920793BA
:10105800032103A8FFF72AFEC0B9FFF7D3FE104B00
:10106800A3FB00308009FFF7DDFA0420FFF7F0FA50
:10107800002211464FF0FF30FFF7A0FA15B05DF8D7
:1010880004FB40F20B110748FFF7AAFF40F21911C1
:101098000448FFF7A5FF00BF003802400070004079
:1010A800D34D6210E01300082DE9F041FFF734FA40
:1010B800554C00224FF480512046FFF7B8FB002220
:1010C8004FF480412046FFF7B2FB00224FF4004165
:1010D8002046FFF7ACFBFFF785FFFFF799FE8AE094
:1010E80008224A492046FFF76DFF00231A46194691
:1010F8001846FFF737FF0134012CF1DD0135012DCA
:1011080006DC042241492846FFF75CFF0024F3E788
:101118000136012E06DC02223C493046FFF752FF19
:101128000025ECE70137012F06DC01223749384654
:10113800FFF748FF0026ECE708F10108B8F1010FB6
:1011480006DC022230494046FFF73CFF0027EAE769
:101158002D4C012221461046FFF734FF022221467A
:101168000020FFF72FFF4FF0000834E0082227493E
:101178002046FFF727FF244F022239460120FFF7B8
:1011880021FF23462A4631464046FFF7EBFE02225E
:1011980039460020FFF716FF23462A4631464046C7
:1011A800FFF7E0FE0134012CE0DD0135012D06DCFE
:1011B800042216492846FFF705FF0024F3E7013605
:1011C800012E06DC022211493046FFF7FBFE0025FE
:1011D800ECE708F10108B8F1010F06DC01220B4920
:1011E8004046FFF7EFFE0026EAE701224FF40041F0
:1011F8000548FFF71CFB012203490020FFF7E2FE28
:101208004FF000089AE700BF000C024000080240B7
:1012180010B582B000240094214B5A6C42F48042ED
:101228005A645A6C02F480420092009A01941A6C33
:1012380042F080521A641B6C03F080530193019BA7
:101248000720FFF7A9F9224621466FF00B00FFF7A8
:10125800B5F9224621466FF00A00FFF7AFF922469A
:1012680021466FF00900FFF7A9F9224621466FF0E1
:101278000400FFF7A3F9224621466FF00300FFF7A9
:101288009DF9224621466FF00100FFF797F92246A3
:1012980021464FF0FF30FFF791F902B010BD00BFB3
:1012A800003802407047FEE7FEE7FEE7FEE77047BA
:1012B8007047704708B5FFF749F9FFF7DAF908BD35
:1012C8000F49D1F8883043F47003C1F888300D4BCA
:1012D8001A6842F001021A60002098601A6822F029
:1012E800847222F480321A60074A5A601A6822F41B
:1012F80080221A60D8604FF000638B60704700BF8F
:1013080000ED00E00038024010300024DFF834D04F
:10131800002103E00C4B5B58435004310B480C4B45
:1013280042189A42F6D30B4A02E0002342F8043BE3
:10133800094B9A42F9D3FFF7C3FF00F011F8FFF702
:10134800B3FE7047000002200014000800000020CF
:10135800100000201000002030000020FEE70000F0
:1013680070B50D4E0D4CA41BA4100025A54209D143
:101378000B4E0C4C00F018F8A41BA4100025A54235
:1013880005D170BD56F8253098470135EEE756F877
:10139800253098470135F2E7F8130008F8130008DC
:1013A800F8130008FC130008F8B500BFF8BC08BC27
:1013B8009E467047F8B500BFF8BC08BC9E4670470B
:1013C80000000000000000000102030406070809ED
:1013D80000000000010203042E2E2F5372632F6DAC
:0813E80061696E2E6300000034
:0813F00018EEFF7F0100000070
:0413F800BD0100082B
:0413FC00990100084B
:101400000100000010000000640000000024F4004F
:0400000508001315C7
:00000001FF
